{
  "_format": "hh-sol-artifact-1",
  "contractName": "CryptoMeme",
  "sourceName": "contracts/CryptoMeme.sol",
  "abi": [
    {
      "inputs": [
        {
          "internalType": "string",
          "name": "_baseUri",
          "type": "string"
        }
      ],
      "stateMutability": "nonpayable",
      "type": "constructor"
    },
    {
      "anonymous": false,
      "inputs": [
        {
          "indexed": true,
          "internalType": "address",
          "name": "account",
          "type": "address"
        },
        {
          "indexed": true,
          "internalType": "address",
          "name": "operator",
          "type": "address"
        },
        {
          "indexed": false,
          "internalType": "bool",
          "name": "approved",
          "type": "bool"
        }
      ],
      "name": "ApprovalForAll",
      "type": "event"
    },
    {
      "anonymous": false,
      "inputs": [
        {
          "indexed": true,
          "internalType": "address",
          "name": "previousOwner",
          "type": "address"
        },
        {
          "indexed": true,
          "internalType": "address",
          "name": "newOwner",
          "type": "address"
        }
      ],
      "name": "OwnershipTransferred",
      "type": "event"
    },
    {
      "anonymous": false,
      "inputs": [
        {
          "indexed": true,
          "internalType": "address",
          "name": "operator",
          "type": "address"
        },
        {
          "indexed": true,
          "internalType": "address",
          "name": "from",
          "type": "address"
        },
        {
          "indexed": true,
          "internalType": "address",
          "name": "to",
          "type": "address"
        },
        {
          "indexed": false,
          "internalType": "uint256[]",
          "name": "ids",
          "type": "uint256[]"
        },
        {
          "indexed": false,
          "internalType": "uint256[]",
          "name": "values",
          "type": "uint256[]"
        }
      ],
      "name": "TransferBatch",
      "type": "event"
    },
    {
      "anonymous": false,
      "inputs": [
        {
          "indexed": true,
          "internalType": "address",
          "name": "operator",
          "type": "address"
        },
        {
          "indexed": true,
          "internalType": "address",
          "name": "from",
          "type": "address"
        },
        {
          "indexed": true,
          "internalType": "address",
          "name": "to",
          "type": "address"
        },
        {
          "indexed": false,
          "internalType": "uint256",
          "name": "id",
          "type": "uint256"
        },
        {
          "indexed": false,
          "internalType": "uint256",
          "name": "value",
          "type": "uint256"
        }
      ],
      "name": "TransferSingle",
      "type": "event"
    },
    {
      "anonymous": false,
      "inputs": [
        {
          "indexed": false,
          "internalType": "string",
          "name": "value",
          "type": "string"
        },
        {
          "indexed": true,
          "internalType": "uint256",
          "name": "id",
          "type": "uint256"
        }
      ],
      "name": "URI",
      "type": "event"
    },
    {
      "inputs": [],
      "name": "MAX_MEMES_SUPPLY",
      "outputs": [
        {
          "internalType": "uint64",
          "name": "",
          "type": "uint64"
        }
      ],
      "stateMutability": "view",
      "type": "function"
    },
    {
      "inputs": [],
      "name": "MEME_COIN",
      "outputs": [
        {
          "internalType": "uint256",
          "name": "",
          "type": "uint256"
        }
      ],
      "stateMutability": "view",
      "type": "function"
    },
    {
      "inputs": [],
      "name": "MEME_CREATION_REWARD",
      "outputs": [
        {
          "internalType": "uint256",
          "name": "",
          "type": "uint256"
        }
      ],
      "stateMutability": "view",
      "type": "function"
    },
    {
      "inputs": [
        {
          "internalType": "address",
          "name": "account",
          "type": "address"
        },
        {
          "internalType": "uint256",
          "name": "id",
          "type": "uint256"
        }
      ],
      "name": "balanceOf",
      "outputs": [
        {
          "internalType": "uint256",
          "name": "",
          "type": "uint256"
        }
      ],
      "stateMutability": "view",
      "type": "function"
    },
    {
      "inputs": [
        {
          "internalType": "address[]",
          "name": "accounts",
          "type": "address[]"
        },
        {
          "internalType": "uint256[]",
          "name": "ids",
          "type": "uint256[]"
        }
      ],
      "name": "balanceOfBatch",
      "outputs": [
        {
          "internalType": "uint256[]",
          "name": "",
          "type": "uint256[]"
        }
      ],
      "stateMutability": "view",
      "type": "function"
    },
    {
      "inputs": [
        {
          "internalType": "uint256",
          "name": "memeId",
          "type": "uint256"
        }
      ],
      "name": "buyMeme",
      "outputs": [],
      "stateMutability": "payable",
      "type": "function"
    },
    {
      "inputs": [
        {
          "internalType": "bytes32",
          "name": "_hash",
          "type": "bytes32"
        },
        {
          "internalType": "uint256",
          "name": "price",
          "type": "uint256"
        },
        {
          "internalType": "bool",
          "name": "isForSale",
          "type": "bool"
        }
      ],
      "name": "createMeme",
      "outputs": [],
      "stateMutability": "nonpayable",
      "type": "function"
    },
    {
      "inputs": [
        {
          "internalType": "address",
          "name": "user",
          "type": "address"
        }
      ],
      "name": "disableUser",
      "outputs": [],
      "stateMutability": "nonpayable",
      "type": "function"
    },
    {
      "inputs": [
        {
          "internalType": "uint256",
          "name": "memeId",
          "type": "uint256"
        }
      ],
      "name": "getMeme",
      "outputs": [
        {
          "components": [
            {
              "internalType": "address",
              "name": "owner",
              "type": "address"
            },
            {
              "internalType": "uint256",
              "name": "createdAt",
              "type": "uint256"
            },
            {
              "internalType": "uint256",
              "name": "price",
              "type": "uint256"
            },
            {
              "internalType": "bool",
              "name": "isForSale",
              "type": "bool"
            },
            {
              "internalType": "uint256",
              "name": "id",
              "type": "uint256"
            }
          ],
          "internalType": "struct CryptoMeme.MemeInfo",
          "name": "",
          "type": "tuple"
        }
      ],
      "stateMutability": "view",
      "type": "function"
    },
    {
      "inputs": [],
      "name": "getMemes",
      "outputs": [
        {
          "components": [
            {
              "internalType": "address",
              "name": "owner",
              "type": "address"
            },
            {
              "internalType": "uint256",
              "name": "createdAt",
              "type": "uint256"
            },
            {
              "internalType": "uint256",
              "name": "price",
              "type": "uint256"
            },
            {
              "internalType": "bool",
              "name": "isForSale",
              "type": "bool"
            },
            {
              "internalType": "uint256",
              "name": "id",
              "type": "uint256"
            }
          ],
          "internalType": "struct CryptoMeme.MemeInfo[]",
          "name": "",
          "type": "tuple[]"
        }
      ],
      "stateMutability": "view",
      "type": "function"
    },
    {
      "inputs": [
        {
          "internalType": "address",
          "name": "account",
          "type": "address"
        },
        {
          "internalType": "address",
          "name": "operator",
          "type": "address"
        }
      ],
      "name": "isApprovedForAll",
      "outputs": [
        {
          "internalType": "bool",
          "name": "",
          "type": "bool"
        }
      ],
      "stateMutability": "view",
      "type": "function"
    },
    {
      "inputs": [
        {
          "internalType": "address",
          "name": "user",
          "type": "address"
        }
      ],
      "name": "isUserEnabled",
      "outputs": [
        {
          "internalType": "bool",
          "name": "",
          "type": "bool"
        }
      ],
      "stateMutability": "view",
      "type": "function"
    },
    {
      "inputs": [
        {
          "internalType": "uint256",
          "name": "",
          "type": "uint256"
        }
      ],
      "name": "memeInfos",
      "outputs": [
        {
          "internalType": "address",
          "name": "owner",
          "type": "address"
        },
        {
          "internalType": "uint256",
          "name": "createdAt",
          "type": "uint256"
        },
        {
          "internalType": "uint256",
          "name": "price",
          "type": "uint256"
        },
        {
          "internalType": "bool",
          "name": "isForSale",
          "type": "bool"
        },
        {
          "internalType": "uint256",
          "name": "id",
          "type": "uint256"
        }
      ],
      "stateMutability": "view",
      "type": "function"
    },
    {
      "inputs": [
        {
          "internalType": "uint256",
          "name": "",
          "type": "uint256"
        }
      ],
      "name": "memes",
      "outputs": [
        {
          "internalType": "address",
          "name": "owner",
          "type": "address"
        },
        {
          "internalType": "uint256",
          "name": "createdAt",
          "type": "uint256"
        },
        {
          "internalType": "uint256",
          "name": "price",
          "type": "uint256"
        },
        {
          "internalType": "bool",
          "name": "isForSale",
          "type": "bool"
        },
        {
          "internalType": "uint256",
          "name": "id",
          "type": "uint256"
        }
      ],
      "stateMutability": "view",
      "type": "function"
    },
    {
      "inputs": [],
      "name": "owner",
      "outputs": [
        {
          "internalType": "address",
          "name": "",
          "type": "address"
        }
      ],
      "stateMutability": "view",
      "type": "function"
    },
    {
      "inputs": [],
      "name": "renounceOwnership",
      "outputs": [],
      "stateMutability": "nonpayable",
      "type": "function"
    },
    {
      "inputs": [
        {
          "internalType": "address",
          "name": "from",
          "type": "address"
        },
        {
          "internalType": "address",
          "name": "to",
          "type": "address"
        },
        {
          "internalType": "uint256[]",
          "name": "ids",
          "type": "uint256[]"
        },
        {
          "internalType": "uint256[]",
          "name": "amounts",
          "type": "uint256[]"
        },
        {
          "internalType": "bytes",
          "name": "data",
          "type": "bytes"
        }
      ],
      "name": "safeBatchTransferFrom",
      "outputs": [],
      "stateMutability": "nonpayable",
      "type": "function"
    },
    {
      "inputs": [
        {
          "internalType": "address",
          "name": "from",
          "type": "address"
        },
        {
          "internalType": "address",
          "name": "to",
          "type": "address"
        },
        {
          "internalType": "uint256",
          "name": "id",
          "type": "uint256"
        },
        {
          "internalType": "uint256",
          "name": "amount",
          "type": "uint256"
        },
        {
          "internalType": "bytes",
          "name": "data",
          "type": "bytes"
        }
      ],
      "name": "safeTransferFrom",
      "outputs": [],
      "stateMutability": "nonpayable",
      "type": "function"
    },
    {
      "inputs": [
        {
          "internalType": "address",
          "name": "operator",
          "type": "address"
        },
        {
          "internalType": "bool",
          "name": "approved",
          "type": "bool"
        }
      ],
      "name": "setApprovalForAll",
      "outputs": [],
      "stateMutability": "nonpayable",
      "type": "function"
    },
    {
      "inputs": [
        {
          "internalType": "uint256",
          "name": "memeId",
          "type": "uint256"
        },
        {
          "internalType": "uint256",
          "name": "price",
          "type": "uint256"
        }
      ],
      "name": "setMemePrice",
      "outputs": [],
      "stateMutability": "nonpayable",
      "type": "function"
    },
    {
      "inputs": [
        {
          "internalType": "uint256",
          "name": "memeId",
          "type": "uint256"
        },
        {
          "internalType": "bool",
          "name": "isForSale",
          "type": "bool"
        }
      ],
      "name": "setMemeSale",
      "outputs": [],
      "stateMutability": "nonpayable",
      "type": "function"
    },
    {
      "inputs": [
        {
          "internalType": "string",
          "name": "_newUri",
          "type": "string"
        }
      ],
      "name": "setURI",
      "outputs": [],
      "stateMutability": "nonpayable",
      "type": "function"
    },
    {
      "inputs": [],
      "name": "signUp",
      "outputs": [],
      "stateMutability": "nonpayable",
      "type": "function"
    },
    {
      "inputs": [
        {
          "internalType": "bytes4",
          "name": "interfaceId",
          "type": "bytes4"
        }
      ],
      "name": "supportsInterface",
      "outputs": [
        {
          "internalType": "bool",
          "name": "",
          "type": "bool"
        }
      ],
      "stateMutability": "view",
      "type": "function"
    },
    {
      "inputs": [
        {
          "internalType": "address",
          "name": "newOwner",
          "type": "address"
        }
      ],
      "name": "transferOwnership",
      "outputs": [],
      "stateMutability": "nonpayable",
      "type": "function"
    },
    {
      "inputs": [
        {
          "internalType": "uint256",
          "name": "",
          "type": "uint256"
        }
      ],
      "name": "uri",
      "outputs": [
        {
          "internalType": "string",
          "name": "",
          "type": "string"
        }
      ],
      "stateMutability": "view",
      "type": "function"
    }
  ],
  "bytecode": "0x60806040526064600555600680546001600160401b0319166001600160401b031790553480156200002f57600080fd5b506040516200295f3803806200295f833981016040819052620000529162000182565b806200005e8162000071565b506200006a336200008a565b50620002ab565b805162000086906002906020840190620000dc565b5050565b600380546001600160a01b038381166001600160a01b0319831681179093556040519116919082907f8be0079c531659141344cd1fd0a4f28419497f9722a3daafe3b4186f6b6457e090600090a35050565b828054620000ea9062000258565b90600052602060002090601f0160209004810192826200010e576000855562000159565b82601f106200012957805160ff191683800117855562000159565b8280016001018555821562000159579182015b82811115620001595782518255916020019190600101906200013c565b50620001679291506200016b565b5090565b5b808211156200016757600081556001016200016c565b6000602080838503121562000195578182fd5b82516001600160401b0380821115620001ac578384fd5b818501915085601f830112620001c0578384fd5b815181811115620001d557620001d562000295565b604051601f8201601f19908116603f0116810190838211818310171562000200576200020062000295565b81604052828152888684870101111562000218578687fd5b8693505b828410156200023b57848401860151818501870152928501926200021c565b828411156200024c57868684830101525b98975050505050505050565b600181811c908216806200026d57607f821691505b602082108114156200028f57634e487b7160e01b600052602260045260246000fd5b50919050565b634e487b7160e01b600052604160045260246000fd5b6126a480620002bb6000396000f3fe6080604052600436106101805760003560e01c80638da5cb5b116100d1578063c8368e741161008a578063e985e9c511610064578063e985e9c514610518578063ee6649a114610561578063f242432a14610581578063f2fde38b146105a157600080fd5b8063c8368e7414610473578063cfec8024146104ac578063e958cfbf1461050357600080fd5b80638da5cb5b146103b65780639bd0bd8a146103de5780639eb072a1146103f1578063a22cb46514610407578063b67b547014610427578063bf96ae631461044757600080fd5b806332fd9a4f1161013e578063472f4c2111610118578063472f4c21146103325780634e1273f414610352578063715018a61461037f5780638c849f3f1461039457600080fd5b806332fd9a4f14610291578063388f6064146102b15780633dea6b9a1461030557600080fd5b8062fdd58e1461018557806301ffc9a7146101b857806302fe5305146101e85780630e89341c1461020a5780632eb2c2d6146102375780632ed6d14614610257575b600080fd5b34801561019157600080fd5b506101a56101a0366004611eef565b6105c1565b6040519081526020015b60405180910390f35b3480156101c457600080fd5b506101d86101d3366004612017565b61065b565b60405190151581526020016101af565b3480156101f457600080fd5b5061020861020336600461204f565b6106ab565b005b34801561021657600080fd5b5061022a61022536600461209d565b6106e1565b6040516101af91906122e7565b34801561024357600080fd5b50610208610252366004611dbd565b610775565b34801561026357600080fd5b506006546102789067ffffffffffffffff1681565b60405167ffffffffffffffff90911681526020016101af565b34801561029d57600080fd5b506102086102ac3660046120d7565b61080c565b3480156102bd57600080fd5b506102d16102cc36600461209d565b6108ab565b604080516001600160a01b03909616865260208601949094529284019190915215156060830152608082015260a0016101af565b34801561031157600080fd5b5061032561032036600461209d565b6108fc565b6040516101af91906124bd565b34801561033e57600080fd5b5061020861034d3660046120b5565b610996565b34801561035e57600080fd5b5061037261036d366004611f18565b610a23565b6040516101af91906122a6565b34801561038b57600080fd5b50610208610b85565b3480156103a057600080fd5b506103a9610bbb565b6040516101af9190612258565b3480156103c257600080fd5b506003546040516001600160a01b0390911681526020016101af565b6102086103ec36600461209d565b610c54565b3480156103fd57600080fd5b506101a560055481565b34801561041357600080fd5b50610208610422366004611ec6565b610f16565b34801561043357600080fd5b50610208610442366004611fe3565b610f25565b34801561045357600080fd5b50610208336000908152600960205260409020805460ff19166001179055565b34801561047f57600080fd5b506101d861048e366004611d71565b6001600160a01b031660009081526009602052604090205460ff1690565b3480156104b857600080fd5b506102d16104c736600461209d565b600760205260009081526040902080546001820154600283015460038401546004909401546001600160a01b03909316939192909160ff169085565b34801561050f57600080fd5b506101a5600081565b34801561052457600080fd5b506101d8610533366004611d8b565b6001600160a01b03918216600090815260016020908152604080832093909416825291909152205460ff1690565b34801561056d57600080fd5b5061020861057c366004611d71565b611256565b34801561058d57600080fd5b5061020861059c366004611e63565b6112a1565b3480156105ad57600080fd5b506102086105bc366004611d71565b611328565b60006001600160a01b0383166106325760405162461bcd60e51b815260206004820152602b60248201527f455243313135353a2062616c616e636520717565727920666f7220746865207a60448201526a65726f206164647265737360a81b60648201526084015b60405180910390fd5b506000818152602081815260408083206001600160a01b03861684529091529020545b92915050565b60006001600160e01b03198216636cdb3d1360e11b148061068c57506001600160e01b031982166303a24d0760e21b145b8061065557506301ffc9a760e01b6001600160e01b0319831614610655565b6003546001600160a01b031633146106d55760405162461bcd60e51b815260040161062990612488565b6106de816113c0565b50565b6060600280546106f090612507565b80601f016020809104026020016040519081016040528092919081815260200182805461071c90612507565b80156107695780601f1061073e57610100808354040283529160200191610769565b820191906000526020600020905b81548152906001019060200180831161074c57829003601f168201915b50505050509050919050565b6001600160a01b03851633148061079157506107918533610533565b6107f85760405162461bcd60e51b815260206004820152603260248201527f455243313135353a207472616e736665722063616c6c6572206973206e6f74206044820152711bdddb995c881b9bdc88185c1c1c9bdd995960721b6064820152608401610629565b61080585858585856113d3565b5050505050565b6000828152600760205260409020546001600160a01b03166108405760405162461bcd60e51b8152600401610629906122fa565b600081116108605760405162461bcd60e51b815260040161062990612370565b6000828152600760205260409020546001600160a01b031633146108965760405162461bcd60e51b8152600401610629906123fc565b60009182526007602052604090912060020155565b600881815481106108bb57600080fd5b6000918252602090912060059091020180546001820154600283015460038401546004909401546001600160a01b0390931694509092909160ff9091169085565b6109396040518060a0016040528060006001600160a01b031681526020016000815260200160008152602001600015158152602001600081525090565b50600090815260076020908152604091829020825160a08101845281546001600160a01b03168152600182015492810192909252600281015492820192909252600382015460ff1615156060820152600490910154608082015290565b6000828152600760205260409020546001600160a01b03166109ca5760405162461bcd60e51b8152600401610629906122fa565b6000828152600760205260409020546001600160a01b03163314610a005760405162461bcd60e51b8152600401610629906123fc565b600091825260076020526040909120600301805460ff1916911515919091179055565b60608151835114610a885760405162461bcd60e51b815260206004820152602960248201527f455243313135353a206163636f756e747320616e6420696473206c656e677468604482015268040dad2e6dac2e8c6d60bb1b6064820152608401610629565b6000835167ffffffffffffffff811115610ab257634e487b7160e01b600052604160045260246000fd5b604051908082528060200260200182016040528015610adb578160200160208202803683370190505b50905060005b8451811015610b7d57610b42858281518110610b0d57634e487b7160e01b600052603260045260246000fd5b6020026020010151858381518110610b3557634e487b7160e01b600052603260045260246000fd5b60200260200101516105c1565b828281518110610b6257634e487b7160e01b600052603260045260246000fd5b6020908102919091010152610b768161256f565b9050610ae1565b509392505050565b6003546001600160a01b03163314610baf5760405162461bcd60e51b815260040161062990612488565b610bb960006115cc565b565b60606008805480602002602001604051908101604052809291908181526020016000905b82821015610c4b5760008481526020908190206040805160a0810182526005860290920180546001600160a01b0316835260018082015484860152600282015492840192909252600381015460ff16151560608401526004015460808301529083529092019101610bdf565b50505050905090565b3360009081526009602052604090205460ff161515600114610cb85760405162461bcd60e51b815260206004820152601d60248201527f43616c6c6572206973206e6f7420616e20656e61626c656420757365720000006044820152606401610629565b6000818152600760205260409020546001600160a01b0316610cec5760405162461bcd60e51b8152600401610629906122fa565b6000818152600760205260409020546001600160a01b0316331415610d535760405162461bcd60e51b815260206004820181905260248201527f53656e64657220616c7265616479206f776e732063757272656e74206d656d656044820152606401610629565b60008181526007602052604090206003015460ff16610dab5760405162461bcd60e51b81526020600482015260146024820152734d656d65206973204e4f5420666f722073616c6560601b6044820152606401610629565b60008181526007602052604081206002015490610dc99033906105c1565b1015610e175760405162461bcd60e51b815260206004820181905260248201527f496e73756666696369656e742062616c616e636520746f20627579206d656d656044820152606401610629565b6000818152600760205260409020600201543414610e6e5760405162461bcd60e51b8152602060048201526014602482015273496e636f7272656374206d656d6520707269636560601b6044820152606401610629565b6000818152600760209081526040808320548151808301909252600c82526b26aa21afaa2920a729a322a960a11b92820192909252610eba9233926001600160a01b031691349061161e565b6106de6007600083815260200190815260200160002060000160009054906101000a90046001600160a01b0316338360016040518060400160405280600d81526020016c26a2a6a2afaa2920a729a322a960991b81525061161e565b610f21338383611744565b5050565b3360009081526009602052604090205460ff161515600114610f895760405162461bcd60e51b815260206004820152601d60248201527f43616c6c6572206973206e6f7420616e20656e61626c656420757365720000006044820152606401610629565b60008211610fa95760405162461bcd60e51b815260040161062990612370565b6000838152600a602052604090205460ff16156110085760405162461bcd60e51b815260206004820152601860248201527f4d656d652077617320616c7265616479206372656174656400000000000000006044820152606401610629565b60065460085467ffffffffffffffff90911610156110685760405162461bcd60e51b815260206004820152601b60248201527f4d6178696d756d206d656d6520737570706c79207265616368656400000000006044820152606401610629565b60008360001c905061108c3382600160405180602001604052806000815250611825565b6040805160a081018252338082524260208084019182528385018881528715156060860190815260808601888152600089815260078552888120885181546001600160a01b039182166001600160a01b0319918216178355885160018085019190915587516002850155865160038501805491151560ff19928316179055865160049095019490945560088054918201815585528b5160059182027ff3f7a9fe364faab93b216da50a3214154f22a0a2b415b23a84c8169e8b636ee38101805492909516919093161790925597517ff3f7a9fe364faab93b216da50a3214154f22a0a2b415b23a84c8169e8b636ee489015594517ff3f7a9fe364faab93b216da50a3214154f22a0a2b415b23a84c8169e8b636ee588015592517ff3f7a9fe364faab93b216da50a3214154f22a0a2b415b23a84c8169e8b636ee6870180549115159190941617909255517ff3f7a9fe364faab93b216da50a3214154f22a0a2b415b23a84c8169e8b636ee79094019390935554855180870190965260148652731351535157d0d49150551253d397d49155d0549160621b9186019190915292936112379390611825565b505050600091825250600a60205260409020805460ff19166001179055565b6003546001600160a01b031633146112805760405162461bcd60e51b815260040161062990612488565b6001600160a01b03166000908152600960205260409020805460ff19169055565b6001600160a01b0385163314806112bd57506112bd8533610533565b61131b5760405162461bcd60e51b815260206004820152602960248201527f455243313135353a2063616c6c6572206973206e6f74206f776e6572206e6f7260448201526808185c1c1c9bdd995960ba1b6064820152608401610629565b610805858585858561161e565b6003546001600160a01b031633146113525760405162461bcd60e51b815260040161062990612488565b6001600160a01b0381166113b75760405162461bcd60e51b815260206004820152602660248201527f4f776e61626c653a206e6577206f776e657220697320746865207a65726f206160448201526564647265737360d01b6064820152608401610629565b6106de816115cc565b8051610f21906002906020840190611bb4565b81518351146114355760405162461bcd60e51b815260206004820152602860248201527f455243313135353a2069647320616e6420616d6f756e7473206c656e677468206044820152670dad2e6dac2e8c6d60c31b6064820152608401610629565b6001600160a01b03841661145b5760405162461bcd60e51b8152600401610629906123b7565b3360005b845181101561155e57600085828151811061148a57634e487b7160e01b600052603260045260246000fd5b6020026020010151905060008583815181106114b657634e487b7160e01b600052603260045260246000fd5b602090810291909101810151600084815280835260408082206001600160a01b038e1683529093529190912054909150818110156115065760405162461bcd60e51b81526004016106299061243e565b6000838152602081815260408083206001600160a01b038e8116855292528083208585039055908b168252812080548492906115439084906124ef565b92505081905550505050806115579061256f565b905061145f565b50846001600160a01b0316866001600160a01b0316826001600160a01b03167f4a39dc06d4c0dbc64b70af90fd698a233a518aa5d07e595d983b8c0526c8f7fb87876040516115ae9291906122b9565b60405180910390a46115c4818787878787611926565b505050505050565b600380546001600160a01b038381166001600160a01b0319831681179093556040519116919082907f8be0079c531659141344cd1fd0a4f28419497f9722a3daafe3b4186f6b6457e090600090a35050565b6001600160a01b0384166116445760405162461bcd60e51b8152600401610629906123b7565b3361165d81878761165488611a91565b61080588611a91565b6000848152602081815260408083206001600160a01b038a1684529091529020548381101561169e5760405162461bcd60e51b81526004016106299061243e565b6000858152602081815260408083206001600160a01b038b81168552925280832087850390559088168252812080548692906116db9084906124ef565b909155505060408051868152602081018690526001600160a01b03808916928a821692918616917fc3d58168c5ae7397731d063d5bbf3d657854427343f4c083240f7aacaa2d0f62910160405180910390a461173b828888888888611aea565b50505050505050565b816001600160a01b0316836001600160a01b031614156117b85760405162461bcd60e51b815260206004820152602960248201527f455243313135353a2073657474696e6720617070726f76616c20737461747573604482015268103337b91039b2b63360b91b6064820152608401610629565b6001600160a01b03838116600081815260016020908152604080832094871680845294825291829020805460ff191686151590811790915591519182527f17307eab39ab6107e8899845ad3d59bd9653f200f220920489ca2b5937696c31910160405180910390a3505050565b6001600160a01b0384166118855760405162461bcd60e51b815260206004820152602160248201527f455243313135353a206d696e7420746f20746865207a65726f206164647265736044820152607360f81b6064820152608401610629565b336118968160008761165488611a91565b6000848152602081815260408083206001600160a01b0389168452909152812080548592906118c69084906124ef565b909155505060408051858152602081018590526001600160a01b0380881692600092918516917fc3d58168c5ae7397731d063d5bbf3d657854427343f4c083240f7aacaa2d0f62910160405180910390a461080581600087878787611aea565b6001600160a01b0384163b156115c45760405163bc197c8160e01b81526001600160a01b0385169063bc197c819061196a90899089908890889088906004016121b5565b602060405180830381600087803b15801561198457600080fd5b505af19250505080156119b4575060408051601f3d908101601f191682019092526119b191810190612033565b60015b611a61576119c06125b6565b806308c379a014156119fa57506119d56125ce565b806119e057506119fc565b8060405162461bcd60e51b815260040161062991906122e7565b505b60405162461bcd60e51b815260206004820152603460248201527f455243313135353a207472616e7366657220746f206e6f6e20455243313135356044820152732932b1b2b4bb32b91034b6b83632b6b2b73a32b960611b6064820152608401610629565b6001600160e01b0319811663bc197c8160e01b1461173b5760405162461bcd60e51b815260040161062990612328565b60408051600180825281830190925260609160009190602080830190803683370190505090508281600081518110611ad957634e487b7160e01b600052603260045260246000fd5b602090810291909101015292915050565b6001600160a01b0384163b156115c45760405163f23a6e6160e01b81526001600160a01b0385169063f23a6e6190611b2e9089908990889088908890600401612213565b602060405180830381600087803b158015611b4857600080fd5b505af1925050508015611b78575060408051601f3d908101601f19168201909252611b7591810190612033565b60015b611b84576119c06125b6565b6001600160e01b0319811663f23a6e6160e01b1461173b5760405162461bcd60e51b815260040161062990612328565b828054611bc090612507565b90600052602060002090601f016020900481019282611be25760008555611c28565b82601f10611bfb57805160ff1916838001178555611c28565b82800160010185558215611c28579182015b82811115611c28578251825591602001919060010190611c0d565b50611c34929150611c38565b5090565b5b80821115611c345760008155600101611c39565b600067ffffffffffffffff831115611c6757611c676125a0565b604051611c7e601f8501601f191660200182612542565b809150838152848484011115611c9357600080fd5b83836020830137600060208583010152509392505050565b80356001600160a01b0381168114611cc257600080fd5b919050565b600082601f830112611cd7578081fd5b81356020611ce4826124cb565b604051611cf18282612542565b8381528281019150858301600585901b87018401881015611d10578586fd5b855b85811015611d2e57813584529284019290840190600101611d12565b5090979650505050505050565b80358015158114611cc257600080fd5b600082601f830112611d5b578081fd5b611d6a83833560208501611c4d565b9392505050565b600060208284031215611d82578081fd5b611d6a82611cab565b60008060408385031215611d9d578081fd5b611da683611cab565b9150611db460208401611cab565b90509250929050565b600080600080600060a08688031215611dd4578081fd5b611ddd86611cab565b9450611deb60208701611cab565b9350604086013567ffffffffffffffff80821115611e07578283fd5b611e1389838a01611cc7565b94506060880135915080821115611e28578283fd5b611e3489838a01611cc7565b93506080880135915080821115611e49578283fd5b50611e5688828901611d4b565b9150509295509295909350565b600080600080600060a08688031215611e7a578081fd5b611e8386611cab565b9450611e9160208701611cab565b93506040860135925060608601359150608086013567ffffffffffffffff811115611eba578182fd5b611e5688828901611d4b565b60008060408385031215611ed8578182fd5b611ee183611cab565b9150611db460208401611d3b565b60008060408385031215611f01578182fd5b611f0a83611cab565b946020939093013593505050565b60008060408385031215611f2a578182fd5b823567ffffffffffffffff80821115611f41578384fd5b818501915085601f830112611f54578384fd5b81356020611f61826124cb565b604051611f6e8282612542565b8381528281019150858301600585901b870184018b1015611f8d578889fd5b8896505b84871015611fb657611fa281611cab565b835260019690960195918301918301611f91565b5096505086013592505080821115611fcc578283fd5b50611fd985828601611cc7565b9150509250929050565b600080600060608486031215611ff7578081fd5b833592506020840135915061200e60408501611d3b565b90509250925092565b600060208284031215612028578081fd5b8135611d6a81612658565b600060208284031215612044578081fd5b8151611d6a81612658565b600060208284031215612060578081fd5b813567ffffffffffffffff811115612076578182fd5b8201601f81018413612086578182fd5b61209584823560208401611c4d565b949350505050565b6000602082840312156120ae578081fd5b5035919050565b600080604083850312156120c7578182fd5b82359150611db460208401611d3b565b600080604083850312156120e9578182fd5b50508035926020909101359150565b6000815180845260208085019450808401835b838110156121275781518752958201959082019060010161210b565b509495945050505050565b60008151808452815b818110156121575760208185018101518683018201520161213b565b818111156121685782602083870101525b50601f01601f19169290920160200192915050565b80516001600160a01b031682526020808201519083015260408082015190830152606080820151151590830152608090810151910152565b6001600160a01b0386811682528516602082015260a0604082018190526000906121e1908301866120f8565b82810360608401526121f381866120f8565b905082810360808401526122078185612132565b98975050505050505050565b6001600160a01b03868116825285166020820152604081018490526060810183905260a06080820181905260009061224d90830184612132565b979650505050505050565b6020808252825182820181905260009190848201906040850190845b8181101561229a5761228783855161217d565b9284019260a09290920191600101612274565b50909695505050505050565b602081526000611d6a60208301846120f8565b6040815260006122cc60408301856120f8565b82810360208401526122de81856120f8565b95945050505050565b602081526000611d6a6020830184612132565b6020808252601490820152734d656d6520646f6573206e6f742065786973747360601b604082015260600190565b60208082526028908201527f455243313135353a204552433131353552656365697665722072656a656374656040820152676420746f6b656e7360c01b606082015260800190565b60208082526027908201527f5374617274696e672070726963652073686f756c6420626520677265617465726040820152660207468616e20360cc1b606082015260800190565b60208082526025908201527f455243313135353a207472616e7366657220746f20746865207a65726f206164604082015264647265737360d81b606082015260800190565b60208082526022908201527f43616c6c6572206973206e6f7420616e206f776e6572206f6620746865206d656040820152616d6560f01b606082015260800190565b6020808252602a908201527f455243313135353a20696e73756666696369656e742062616c616e636520666f60408201526939103a3930b739b332b960b11b606082015260800190565b6020808252818101527f4f776e61626c653a2063616c6c6572206973206e6f7420746865206f776e6572604082015260600190565b60a08101610655828461217d565b600067ffffffffffffffff8211156124e5576124e56125a0565b5060051b60200190565b600082198211156125025761250261258a565b500190565b600181811c9082168061251b57607f821691505b6020821081141561253c57634e487b7160e01b600052602260045260246000fd5b50919050565b601f8201601f1916810167ffffffffffffffff81118282101715612568576125686125a0565b6040525050565b60006000198214156125835761258361258a565b5060010190565b634e487b7160e01b600052601160045260246000fd5b634e487b7160e01b600052604160045260246000fd5b600060033d11156125cb57600481823e5160e01c5b90565b600060443d10156125dc5790565b6040516003193d81016004833e81513d67ffffffffffffffff816024840111818411171561260c57505050505090565b82850191508151818111156126245750505050505090565b843d870101602082850101111561263e5750505050505090565b61264d60208286010187612542565b509095945050505050565b6001600160e01b0319811681146106de57600080fdfea2646970667358221220bbedff0c67de7f6d9c8839aa82ba33fdc0b937693f9ff505268984ed1d65a55064736f6c63430008040033",
  "linkReferences": {},
  "deployedLinkReferences": {}
}